{
  "contractName": "Lottery",
  "abi": [
    {
      "constant": true,
      "inputs": [],
      "name": "owner",
      "outputs": [
        {
          "name": "",
          "type": "address"
        }
      ],
      "payable": false,
      "stateMutability": "view",
      "type": "function",
      "signature": "0x8da5cb5b"
    },
    {
      "inputs": [],
      "payable": false,
      "stateMutability": "nonpayable",
      "type": "constructor",
      "signature": "constructor"
    },
    {
      "constant": true,
      "inputs": [],
      "name": "getSomeValue",
      "outputs": [
        {
          "name": "value",
          "type": "uint256"
        }
      ],
      "payable": false,
      "stateMutability": "pure",
      "type": "function",
      "signature": "0xa40674b7"
    },
    {
      "constant": true,
      "inputs": [],
      "name": "getPot",
      "outputs": [
        {
          "name": "value",
          "type": "uint256"
        }
      ],
      "payable": false,
      "stateMutability": "view",
      "type": "function",
      "signature": "0x403c9fa8"
    },
    {
      "constant": true,
      "inputs": [
        {
          "name": "index",
          "type": "uint256"
        }
      ],
      "name": "getBetInfo",
      "outputs": [
        {
          "name": "answerBlockNumber",
          "type": "uint256"
        },
        {
          "name": "bettor",
          "type": "address"
        },
        {
          "name": "challenges",
          "type": "bytes1"
        }
      ],
      "payable": false,
      "stateMutability": "view",
      "type": "function",
      "signature": "0x79141f80"
    },
    {
      "constant": false,
      "inputs": [
        {
          "name": "challenges",
          "type": "bytes1"
        }
      ],
      "name": "pushBet",
      "outputs": [
        {
          "name": "",
          "type": "bool"
        }
      ],
      "payable": false,
      "stateMutability": "nonpayable",
      "type": "function",
      "signature": "0x03282096"
    },
    {
      "constant": false,
      "inputs": [
        {
          "name": "index",
          "type": "uint256"
        }
      ],
      "name": "popBet",
      "outputs": [
        {
          "name": "",
          "type": "bool"
        }
      ],
      "payable": false,
      "stateMutability": "nonpayable",
      "type": "function",
      "signature": "0xd04c9a8c"
    }
  ],
  "bytecode": "0x608060405234801561001057600080fd5b5033600360006101000a81548173ffffffffffffffffffffffffffffffffffffffff021916908373ffffffffffffffffffffffffffffffffffffffff160217905550610667806100616000396000f3fe608060405260043610610078576000357c0100000000000000000000000000000000000000000000000000000000900463ffffffff168063032820961461007d578063403c9fa8146100f257806379141f801461011d5780638da5cb5b146101ea578063a40674b714610241578063d04c9a8c1461026c575b600080fd5b34801561008957600080fd5b506100d8600480360360208110156100a057600080fd5b8101908080357effffffffffffffffffffffffffffffffffffffffffffffffffffffffffffff191690602001909291905050506102bf565b604051808215151515815260200191505060405180910390f35b3480156100fe57600080fd5b5061010761041f565b6040518082815260200191505060405180910390f35b34801561012957600080fd5b506101566004803603602081101561014057600080fd5b8101908080359060200190929190505050610429565b604051808481526020018373ffffffffffffffffffffffffffffffffffffffff1673ffffffffffffffffffffffffffffffffffffffff168152602001827effffffffffffffffffffffffffffffffffffffffffffffffffffffffffffff19167effffffffffffffffffffffffffffffffffffffffffffffffffffffffffffff19168152602001935050505060405180910390f35b3480156101f657600080fd5b506101ff61054e565b604051808273ffffffffffffffffffffffffffffffffffffffff1673ffffffffffffffffffffffffffffffffffffffff16815260200191505060405180910390f35b34801561024d57600080fd5b50610256610574565b6040518082815260200191505060405180910390f35b34801561027857600080fd5b506102a56004803603602081101561028f57600080fd5b810190808035906020019092919050505061057d565b604051808215151515815260200191505060405180910390f35b60006102c96105e1565b33816020019073ffffffffffffffffffffffffffffffffffffffff16908173ffffffffffffffffffffffffffffffffffffffff1681525050600343018160000181815250508281604001907effffffffffffffffffffffffffffffffffffffffffffffffffffffffffffff191690817effffffffffffffffffffffffffffffffffffffffffffffffffffffffffffff1916815250508060026000805481526020019081526020016000206000820151816000015560208201518160010160006101000a81548173ffffffffffffffffffffffffffffffffffffffff021916908373ffffffffffffffffffffffffffffffffffffffff16021790555060408201518160010160146101000a81548160ff02191690837f010000000000000000000000000000000000000000000000000000000000000090040217905550905050600080815480929190600101919050555050919050565b6000600454905090565b60008060006104366105e1565b6002600086815260200190815260200160002060606040519081016040529081600082015481526020016001820160009054906101000a900473ffffffffffffffffffffffffffffffffffffffff1673ffffffffffffffffffffffffffffffffffffffff1673ffffffffffffffffffffffffffffffffffffffff1681526020016001820160149054906101000a90047f0100000000000000000000000000000000000000000000000000000000000000027effffffffffffffffffffffffffffffffffffffffffffffffffffffffffffff19167effffffffffffffffffffffffffffffffffffffffffffffffffffffffffffff1916815250509050806000015193508060200151925080604001519150509193909250565b600360009054906101000a900473ffffffffffffffffffffffffffffffffffffffff1681565b60006005905090565b6000600260008381526020019081526020016000206000808201600090556001820160006101000a81549073ffffffffffffffffffffffffffffffffffffffff02191690556001820160146101000a81549060ff0219169055505060019050919050565b60606040519081016040528060008152602001600073ffffffffffffffffffffffffffffffffffffffff16815260200160007effffffffffffffffffffffffffffffffffffffffffffffffffffffffffffff19168152509056fea165627a7a723058206894e950504c1c13d5252491e62ee0540bee95f4fb89e08a249c624bf26131f80029",
  "source": "pragma solidity >=0.4.21 <0.6.0;\n\ncontract Lottery {\n    struct BetInfo {\n        uint256 answerBlockNumber;  // 맞추려는 정답 블록\n        address payable bettor;  // 정답을 맞출 때 bettor에게 돈을 보내야 함. (0.42 이상 부터 돈을 보내려면 payable을 붙여야 돈을 보내기 가능하다)\n        byte challenges; // 0xab...\n    }\n\n    uint256 private _tail;\n    uint256 private _head;\n\n    // map을 이용한 선형 queue\n    mapping (uint256 => BetInfo) private _bets;\n\n    /* public으로 만들게 되면 자동으로 getter를 만들어준다. 그래서 스마트 컨트랙트 외부에서 owner값을 확인할 수 있게되는 것이다. */\n    address public owner;\n\n    uint256 constant internal BLOCK_LIMIT = 256;\n    uint256 constant internal BET_BLOCK_INTERVAL = 3; // 블록들 간의 간격\n    uint256 constant internal BET_AMOUNT = 5 * 10 ** 15; // 0.005ETH\n    uint256 private _pot;\n\n    /* \n        스마트 컨트랙트가 생성이 될 때(배포가 될 때) 가장 처음 실행되는 함수인데, \n        배포가 될 때 보낸 사람(msg.sender)으로 owner를 저장하는 의미이다.\n    */\n    constructor() public { // 생성자\n        owner = msg.sender;\n    }\n\n    // truffle 사용해서 스마트 컨트랙터랑 상호작용 하는 것을 보여준다.\n    function getSomeValue() public pure returns (uint256 value) {\n        return 5;\n    }\n\n    // pot에 대한 getter\n    function getPot() public view returns (uint256 value) { // 스마트 컨트랙트에 있는 변수를 줘야하는 수식어는 \"view\"가 들어가야한다\n        return _pot;\n    }\n\n    // Bet\n        // save the bet to the queue\n\n    // Distribute\n        // check the answer\n            // if the answer right \n                //insert\n\n    function getBetInfo(uint256 index) public view returns (uint256 answerBlockNumber, address bettor, byte challenges) {\n        BetInfo memory b = _bets[index];\n        answerBlockNumber = b.answerBlockNumber;\n        bettor = b.bettor;\n        challenges = b.challenges;\n    }\n\n    // queue에 push 하는 함수\n    function pushBet(byte challenges) public returns (bool) {\n        BetInfo memory b;\n        b.bettor = msg.sender;\n        b.answerBlockNumber = block.number + BET_BLOCK_INTERVAL;\n        b.challenges = challenges;\n\n        _bets[_tail] = b;\n        _tail++;\n        // tail값을 safeMath로 해줘도 되긴 하는데 여기서는 오버플로우 값을 검사 안해도 되기 때문에 할 필요는 없을 것 같다.\n    }\n\n    // queue에서 pop 하는 함수\n    function popBet(uint256 index) public returns (bool) {\n        // delete 하면 블록체인에 데이터를 더이상 저장하지 않겠다(state database에서 값들을 없애겠다)는 의미로서 일정량의 가스를 돌려받는다.\n        delete _bets[index];\n        return true;\n    }\n}",
  "sourcePath": "/Users/jeongtaeung/Desktop/Lottery_Dapp/lottery-smart-contract/contracts/Lottery.sol",
  "compiler": {
    "name": "solc",
    "version": "0.5.0+commit.1d4f565a.Emscripten.clang"
  },
  "schemaVersion": "3.0.1",
  "updatedAt": "2022-01-20T06:54:32.626Z",
  "devdoc": {
    "methods": {}
  },
  "userdoc": {
    "methods": {}
  }
}