{
  "contractName": "Lottery",
  "abi": [
    {
      "constant": true,
      "inputs": [],
      "name": "owner",
      "outputs": [
        {
          "name": "",
          "type": "address"
        }
      ],
      "payable": false,
      "stateMutability": "view",
      "type": "function"
    },
    {
      "inputs": [],
      "payable": false,
      "stateMutability": "nonpayable",
      "type": "constructor"
    },
    {
      "constant": true,
      "inputs": [],
      "name": "getSomeValue",
      "outputs": [
        {
          "name": "value",
          "type": "uint256"
        }
      ],
      "payable": false,
      "stateMutability": "pure",
      "type": "function"
    }
  ],
  "bytecode": "0x608060405234801561001057600080fd5b50336000806101000a81548173ffffffffffffffffffffffffffffffffffffffff021916908373ffffffffffffffffffffffffffffffffffffffff160217905550610124806100606000396000f3fe6080604052600436106049576000357c0100000000000000000000000000000000000000000000000000000000900463ffffffff1680638da5cb5b14604e578063a40674b71460a2575b600080fd5b348015605957600080fd5b50606060ca565b604051808273ffffffffffffffffffffffffffffffffffffffff1673ffffffffffffffffffffffffffffffffffffffff16815260200191505060405180910390f35b34801560ad57600080fd5b5060b460ef565b6040518082815260200191505060405180910390f35b6000809054906101000a900473ffffffffffffffffffffffffffffffffffffffff1681565b6000600590509056fea165627a7a723058205db3b00075cad8bf4700f27a7e5e45bde262ff241c02a5c74be899c88a9f9b9f0029",
  "source": "pragma solidity >=0.4.21 <0.6.0;\n\ncontract Lottery {\n    /* public으로 만들게 되면 자동으로 getter를 만들어준다. 그래서 스마트 컨트랙트 외부에서 owner값을 확인할 수 있게되는 것이다. */\n    address public owner;\n\n    /* \n        스마트 컨트랙트가 생성이 될 때(배포가 될 때) 가장 처음 실행되는 함수인데, \n        배포가 될 때 보낸 사람(msg.sender)으로 owner를 저장하는 의미이다.\n    */\n    constructor() public { // 생성자\n        owner = msg.sender;\n    }\n\n    // truffle 사용해서 스마트 컨트랙터랑 상호작용 하는 것을 보여준다.\n    function getSomeValue() public pure returns (uint256 value) {\n        return 5;\n    }\n\n}",
  "sourcePath": "/Users/jeongtaeung/Desktop/Lottery_Dapp/lottery-smart-contract/contracts/Lottery.sol",
  "compiler": {
    "name": "solc",
    "version": "0.5.0+commit.1d4f565a.Emscripten.clang"
  },
  "schemaVersion": "3.0.1",
  "updatedAt": "2022-01-19T11:55:02.271Z",
  "devdoc": {
    "methods": {}
  },
  "userdoc": {
    "methods": {}
  }
}