{
  "contractName": "Lottery",
  "abi": [
    {
      "constant": true,
      "inputs": [],
      "name": "answerForTest",
      "outputs": [
        {
          "name": "",
          "type": "bytes32"
        }
      ],
      "payable": false,
      "stateMutability": "view",
      "type": "function"
    },
    {
      "constant": true,
      "inputs": [],
      "name": "owner",
      "outputs": [
        {
          "name": "",
          "type": "address"
        }
      ],
      "payable": false,
      "stateMutability": "view",
      "type": "function"
    },
    {
      "inputs": [],
      "payable": false,
      "stateMutability": "nonpayable",
      "type": "constructor"
    },
    {
      "anonymous": false,
      "inputs": [
        {
          "indexed": false,
          "name": "index",
          "type": "uint256"
        },
        {
          "indexed": false,
          "name": "bettor",
          "type": "address"
        },
        {
          "indexed": false,
          "name": "amount",
          "type": "uint256"
        },
        {
          "indexed": false,
          "name": "challenges",
          "type": "bytes1"
        },
        {
          "indexed": false,
          "name": "answerBlockNumber",
          "type": "uint256"
        }
      ],
      "name": "BET",
      "type": "event"
    },
    {
      "anonymous": false,
      "inputs": [
        {
          "indexed": false,
          "name": "index",
          "type": "uint256"
        },
        {
          "indexed": false,
          "name": "bettor",
          "type": "address"
        },
        {
          "indexed": false,
          "name": "amount",
          "type": "uint256"
        },
        {
          "indexed": false,
          "name": "challenges",
          "type": "bytes1"
        },
        {
          "indexed": false,
          "name": "answer",
          "type": "bytes1"
        },
        {
          "indexed": false,
          "name": "answerBlockNumber",
          "type": "uint256"
        }
      ],
      "name": "WIN",
      "type": "event"
    },
    {
      "anonymous": false,
      "inputs": [
        {
          "indexed": false,
          "name": "index",
          "type": "uint256"
        },
        {
          "indexed": false,
          "name": "bettor",
          "type": "address"
        },
        {
          "indexed": false,
          "name": "amount",
          "type": "uint256"
        },
        {
          "indexed": false,
          "name": "challenges",
          "type": "bytes1"
        },
        {
          "indexed": false,
          "name": "answer",
          "type": "bytes1"
        },
        {
          "indexed": false,
          "name": "answerBlockNumber",
          "type": "uint256"
        }
      ],
      "name": "FAIL",
      "type": "event"
    },
    {
      "anonymous": false,
      "inputs": [
        {
          "indexed": false,
          "name": "index",
          "type": "uint256"
        },
        {
          "indexed": false,
          "name": "bettor",
          "type": "address"
        },
        {
          "indexed": false,
          "name": "amount",
          "type": "uint256"
        },
        {
          "indexed": false,
          "name": "challenges",
          "type": "bytes1"
        },
        {
          "indexed": false,
          "name": "answer",
          "type": "bytes1"
        },
        {
          "indexed": false,
          "name": "answerBlockNumber",
          "type": "uint256"
        }
      ],
      "name": "DRAW",
      "type": "event"
    },
    {
      "anonymous": false,
      "inputs": [
        {
          "indexed": false,
          "name": "index",
          "type": "uint256"
        },
        {
          "indexed": false,
          "name": "bettor",
          "type": "address"
        },
        {
          "indexed": false,
          "name": "amount",
          "type": "uint256"
        },
        {
          "indexed": false,
          "name": "challenges",
          "type": "bytes1"
        },
        {
          "indexed": false,
          "name": "answerBlockNumber",
          "type": "uint256"
        }
      ],
      "name": "REFUND",
      "type": "event"
    },
    {
      "constant": true,
      "inputs": [],
      "name": "getPot",
      "outputs": [
        {
          "name": "value",
          "type": "uint256"
        }
      ],
      "payable": false,
      "stateMutability": "view",
      "type": "function"
    },
    {
      "constant": false,
      "inputs": [
        {
          "name": "challenges",
          "type": "bytes1"
        }
      ],
      "name": "bet",
      "outputs": [
        {
          "name": "result",
          "type": "bool"
        }
      ],
      "payable": true,
      "stateMutability": "payable",
      "type": "function"
    },
    {
      "constant": false,
      "inputs": [],
      "name": "distribute",
      "outputs": [],
      "payable": false,
      "stateMutability": "nonpayable",
      "type": "function"
    },
    {
      "constant": false,
      "inputs": [
        {
          "name": "answer",
          "type": "bytes32"
        }
      ],
      "name": "setAnswerForTest",
      "outputs": [
        {
          "name": "result",
          "type": "bool"
        }
      ],
      "payable": false,
      "stateMutability": "nonpayable",
      "type": "function"
    },
    {
      "constant": true,
      "inputs": [
        {
          "name": "challenges",
          "type": "bytes1"
        },
        {
          "name": "answer",
          "type": "bytes32"
        }
      ],
      "name": "isMatch",
      "outputs": [
        {
          "name": "",
          "type": "uint8"
        }
      ],
      "payable": false,
      "stateMutability": "pure",
      "type": "function"
    },
    {
      "constant": true,
      "inputs": [
        {
          "name": "index",
          "type": "uint256"
        }
      ],
      "name": "getBetInfo",
      "outputs": [
        {
          "name": "answerBlockNumber",
          "type": "uint256"
        },
        {
          "name": "bettor",
          "type": "address"
        },
        {
          "name": "challenges",
          "type": "bytes1"
        }
      ],
      "payable": false,
      "stateMutability": "view",
      "type": "function"
    }
  ],
  "bytecode": "0x60806040526000600560006101000a81548160ff02191690831515021790555034801561002b57600080fd5b5033600360006101000a81548173ffffffffffffffffffffffffffffffffffffffff021916908373ffffffffffffffffffffffffffffffffffffffff1602179055506115ce8061007c6000396000f3fe60806040526004361061008e576000357c0100000000000000000000000000000000000000000000000000000000900463ffffffff168063403c9fa8146100935780637009fa36146100be57806379141f801461011157806384f7e4f0146101de5780638da5cb5b1461020957806399a167d714610260578063e4fc6b6d146102e9578063f4b46f5b14610300575b600080fd5b34801561009f57600080fd5b506100a8610368565b6040518082815260200191505060405180910390f35b3480156100ca57600080fd5b506100f7600480360360208110156100e157600080fd5b8101908080359060200190929190505050610372565b604051808215151515815260200191505060405180910390f35b34801561011d57600080fd5b5061014a6004803603602081101561013457600080fd5b810190808035906020019092919050505061046f565b604051808481526020018373ffffffffffffffffffffffffffffffffffffffff1673ffffffffffffffffffffffffffffffffffffffff168152602001827effffffffffffffffffffffffffffffffffffffffffffffffffffffffffffff19167effffffffffffffffffffffffffffffffffffffffffffffffffffffffffffff19168152602001935050505060405180910390f35b3480156101ea57600080fd5b506101f3610594565b6040518082815260200191505060405180910390f35b34801561021557600080fd5b5061021e61059a565b604051808273ffffffffffffffffffffffffffffffffffffffff1673ffffffffffffffffffffffffffffffffffffffff16815260200191505060405180910390f35b34801561026c57600080fd5b506102c56004803603604081101561028357600080fd5b8101908080357effffffffffffffffffffffffffffffffffffffffffffffffffffffffffffff19169060200190929190803590602001909291905050506105c0565b604051808260028111156102d557fe5b60ff16815260200191505060405180910390f35b3480156102f557600080fd5b506102fe610909565b005b61034e6004803603602081101561031657600080fd5b8101908080357effffffffffffffffffffffffffffffffffffffffffffffffffffffffffffff19169060200190929190505050611068565b604051808215151515815260200191505060405180910390f35b6000600454905090565b6000600360009054906101000a900473ffffffffffffffffffffffffffffffffffffffff1673ffffffffffffffffffffffffffffffffffffffff163373ffffffffffffffffffffffffffffffffffffffff1614151561045f576040517f08c379a000000000000000000000000000000000000000000000000000000000815260040180806020018281038252602b8152602001807f4f6e6c79206f776e65722063616e207365742074686520616e7377657220666f81526020017f722074657374206d6f646500000000000000000000000000000000000000000081525060400191505060405180910390fd5b8160068190555060019050919050565b600080600061047c611548565b6002600086815260200190815260200160002060606040519081016040529081600082015481526020016001820160009054906101000a900473ffffffffffffffffffffffffffffffffffffffff1673ffffffffffffffffffffffffffffffffffffffff1673ffffffffffffffffffffffffffffffffffffffff1681526020016001820160149054906101000a90047f0100000000000000000000000000000000000000000000000000000000000000027effffffffffffffffffffffffffffffffffffffffffffffffffffffffffffff19167effffffffffffffffffffffffffffffffffffffffffffffffffffffffffffff1916815250509050806000015193508060200151925080604001519150509193909250565b60065481565b600360009054906101000a900473ffffffffffffffffffffffffffffffffffffffff1681565b600080839050600084905060008460006020811015156105dc57fe5b1a7f0100000000000000000000000000000000000000000000000000000000000000029050600085600060208110151561061257fe5b1a7f01000000000000000000000000000000000000000000000000000000000000000290506004847effffffffffffffffffffffffffffffffffffffffffffffffffffffffffffff1916908060020a820491505093506004847effffffffffffffffffffffffffffffffffffffffffffffffffffffffffffff19169060020a0293506004827effffffffffffffffffffffffffffffffffffffffffffffffffffffffffffff1916908060020a820491505091506004827effffffffffffffffffffffffffffffffffffffffffffffffffffffffffffff19169060020a0291506004837effffffffffffffffffffffffffffffffffffffffffffffffffffffffffffff19169060020a0292506004837effffffffffffffffffffffffffffffffffffffffffffffffffffffffffffff1916908060020a820491505092506004817effffffffffffffffffffffffffffffffffffffffffffffffffffffffffffff19169060020a0290506004817effffffffffffffffffffffffffffffffffffffffffffffffffffffffffffff1916908060020a82049150509050837effffffffffffffffffffffffffffffffffffffffffffffffffffffffffffff1916827effffffffffffffffffffffffffffffffffffffffffffffffffffffffffffff19161480156108415750827effffffffffffffffffffffffffffffffffffffffffffffffffffffffffffff1916817effffffffffffffffffffffffffffffffffffffffffffffffffffffffffffff1916145b15610853576001945050505050610903565b837effffffffffffffffffffffffffffffffffffffffffffffffffffffffffffff1916827effffffffffffffffffffffffffffffffffffffffffffffffffffffffffffff191614806108e85750827effffffffffffffffffffffffffffffffffffffffffffffffffffffffffffff1916817effffffffffffffffffffffffffffffffffffffffffffffffffffffffffffff1916145b156108fa576002945050505050610903565b60009450505050505b92915050565b600080610914611548565b60008060015494505b60005485101561105a576002600086815260200190815260200160002060606040519081016040529081600082015481526020016001820160009054906101000a900473ffffffffffffffffffffffffffffffffffffffff1673ffffffffffffffffffffffffffffffffffffffff1673ffffffffffffffffffffffffffffffffffffffff1681526020016001820160149054906101000a90047f0100000000000000000000000000000000000000000000000000000000000000027effffffffffffffffffffffffffffffffffffffffffffffffffffffffffffff19167effffffffffffffffffffffffffffffffffffffffffffffffffffffffffffff1916815250509250610a2f836000015161123d565b91506000610a40846000015161128f565b905060006002811115610a4f57fe5b836002811115610a5b57fe5b1415610f1457610a6f8460400151826105c0565b915060016002811115610a7e57fe5b826002811115610a8a57fe5b1415610c0457610aa984602001516611c37937e08000600454016112b7565b945060006004819055507f8219079e2d6c1192fb0ff7f78e6faaf5528ad6687e69749205d87bd4b156912b868560200151878760400151856000602081101515610aef57fe5b1a7f0100000000000000000000000000000000000000000000000000000000000000028960000151604051808781526020018673ffffffffffffffffffffffffffffffffffffffff1673ffffffffffffffffffffffffffffffffffffffff168152602001858152602001847effffffffffffffffffffffffffffffffffffffffffffffffffffffffffffff19167effffffffffffffffffffffffffffffffffffffffffffffffffffffffffffff19168152602001837effffffffffffffffffffffffffffffffffffffffffffffffffffffffffffff19167effffffffffffffffffffffffffffffffffffffffffffffffffffffffffffff19168152602001828152602001965050505050505060405180910390a15b60006002811115610c1157fe5b826002811115610c1d57fe5b1415610d8c576611c37937e080006004600082825401925050819055507f3b19d607433249d2ebc766ae82ca3848e9c064f1febb5147bc6e5b21d0adebc586856020015160008760400151856000602081101515610c7757fe5b1a7f0100000000000000000000000000000000000000000000000000000000000000028960000151604051808781526020018673ffffffffffffffffffffffffffffffffffffffff1673ffffffffffffffffffffffffffffffffffffffff168152602001858152602001847effffffffffffffffffffffffffffffffffffffffffffffffffffffffffffff19167effffffffffffffffffffffffffffffffffffffffffffffffffffffffffffff19168152602001837effffffffffffffffffffffffffffffffffffffffffffffffffffffffffffff19167effffffffffffffffffffffffffffffffffffffffffffffffffffffffffffff19168152602001828152602001965050505050505060405180910390a15b60006002811115610d9957fe5b826002811115610da557fe5b1415610f1357610dc084602001516611c37937e080006112b7565b94507f3b19d607433249d2ebc766ae82ca3848e9c064f1febb5147bc6e5b21d0adebc5868560200151878760400151856000602081101515610dfe57fe5b1a7f0100000000000000000000000000000000000000000000000000000000000000028960000151604051808781526020018673ffffffffffffffffffffffffffffffffffffffff1673ffffffffffffffffffffffffffffffffffffffff168152602001858152602001847effffffffffffffffffffffffffffffffffffffffffffffffffffffffffffff19167effffffffffffffffffffffffffffffffffffffffffffffffffffffffffffff19168152602001837effffffffffffffffffffffffffffffffffffffffffffffffffffffffffffff19167effffffffffffffffffffffffffffffffffffffffffffffffffffffffffffff19168152602001828152602001965050505050505060405180910390a15b5b60016002811115610f2157fe5b836002811115610f2d57fe5b1415610f39575061105a565b600280811115610f4557fe5b836002811115610f5157fe5b141561104257610f6c84602001516611c37937e080006112b7565b94507f59c0185881271a0f53d43e6ab9310091408f9e0ff9ae2512613de800f26b8de48685602001518787604001518860000151604051808681526020018573ffffffffffffffffffffffffffffffffffffffff1673ffffffffffffffffffffffffffffffffffffffff168152602001848152602001837effffffffffffffffffffffffffffffffffffffffffffffffffffffffffffff19167effffffffffffffffffffffffffffffffffffffffffffffffffffffffffffff191681526020018281526020019550505050505060405180910390a15b61104b86611380565b5050848060010195505061091d565b846001819055505050505050565b60006611c37937e08000341415156110e8576040517f08c379a000000000000000000000000000000000000000000000000000000000815260040180806020018281038252600e8152602001807f4e6f7420656e6f7567682045544800000000000000000000000000000000000081525060200191505060405180910390fd5b6110f1826113e4565b1515611165576040517f08c379a000000000000000000000000000000000000000000000000000000000815260040180806020018281038252601a8152602001807f4661696c20746f206164642061206e65772042657420496e666f00000000000081525060200191505060405180910390fd5b7f100791de9f40bf2d56ffa6dc5597d2fd0b2703ea70bc7548cd74c04f5d215ab760016000540333348560034301604051808681526020018573ffffffffffffffffffffffffffffffffffffffff1673ffffffffffffffffffffffffffffffffffffffff168152602001848152602001837effffffffffffffffffffffffffffffffffffffffffffffffffffffffffffff19167effffffffffffffffffffffffffffffffffffffffffffffffffffffffffffff191681526020018281526020019550505050505060405180910390a160019050919050565b600081431180156112515750816101000143105b1561125f576000905061128a565b81431115611270576001905061128a565b6101008201431115611285576002905061128a565b600290505b919050565b6000600560009054906101000a900460ff166112ad576006546112b0565b81405b9050919050565b60008060009050600081840390508473ffffffffffffffffffffffffffffffffffffffff166108fc829081150290604051600060405180830381858888f1935050505015801561130b573d6000803e3d6000fd5b50600360009054906101000a900473ffffffffffffffffffffffffffffffffffffffff1673ffffffffffffffffffffffffffffffffffffffff166108fc839081150290604051600060405180830381858888f19350505050158015611374573d6000803e3d6000fd5b50809250505092915050565b6000600260008381526020019081526020016000206000808201600090556001820160006101000a81549073ffffffffffffffffffffffffffffffffffffffff02191690556001820160146101000a81549060ff0219169055505060019050919050565b60006113ee611548565b33816020019073ffffffffffffffffffffffffffffffffffffffff16908173ffffffffffffffffffffffffffffffffffffffff1681525050600343018160000181815250508281604001907effffffffffffffffffffffffffffffffffffffffffffffffffffffffffffff191690817effffffffffffffffffffffffffffffffffffffffffffffffffffffffffffff1916815250508060026000805481526020019081526020016000206000820151816000015560208201518160010160006101000a81548173ffffffffffffffffffffffffffffffffffffffff021916908373ffffffffffffffffffffffffffffffffffffffff16021790555060408201518160010160146101000a81548160ff02191690837f01000000000000000000000000000000000000000000000000000000000000009004021790555090505060008081548092919060010191905055506001915050919050565b60606040519081016040528060008152602001600073ffffffffffffffffffffffffffffffffffffffff16815260200160007effffffffffffffffffffffffffffffffffffffffffffffffffffffffffffff19168152509056fea165627a7a72305820bd57fa3513885f025984e72522c7520e1f5c9d6898e4b290c19ea8f5e08418cb0029",
  "source": "pragma solidity >=0.4.21 <0.6.0;\n\ncontract Lottery {\n    struct BetInfo {\n        uint256 answerBlockNumber;  // 맞추려는 정답 블록\n        address payable bettor;  // 정답을 맞출 때 bettor에게 돈을 보내야 함. (0.42 이상 부터 돈을 보내려면 payable을 붙여야 돈을 보내기 가능하다)\n        byte challenges; // 0xab...\n    }\n\n    uint256 private _tail;\n    uint256 private _head;\n\n    // map을 이용한 선형 queue\n    mapping (uint256 => BetInfo) private _bets;\n\n    /* public으로 만들게 되면 자동으로 getter를 만들어준다. 그래서 스마트 컨트랙트 외부에서 owner값을 확인할 수 있게되는 것이다. */\n    address payable public owner;\n\n    uint256 constant internal BLOCK_LIMIT = 256;\n    uint256 constant internal BET_BLOCK_INTERVAL = 3; // 블록들 간의 간격\n    uint256 constant internal BET_AMOUNT = 5 * 10 ** 15; // 0.005ETH\n    uint256 private _pot;\n\n    bool private mode = false; // false : use answer for test, true : real block hash\n    bytes32 public answerForTest;\n\n    enum BlockStatus {Checkable, NotRevealed, BlockLimitPassed}\n    enum BettingResult{Fail, Win, Draw}\n    event BET(uint256 index, address bettor, uint256 amount, byte challenges, uint256 answerBlockNumber);\n    event WIN(uint256 index, address bettor, uint256 amount, byte challenges, byte answer, uint256 answerBlockNumber);\n    event FAIL(uint256 index, address bettor, uint256 amount, byte challenges, byte answer, uint256 answerBlockNumber);\n    event DRAW(uint256 index, address bettor, uint256 amount, byte challenges, byte answer, uint256 answerBlockNumber);\n    event REFUND(uint256 index, address bettor, uint256 amount, byte challenges, uint256 answerBlockNumber);\n\n    /* \n        스마트 컨트랙트가 생성이 될 때(배포가 될 때) 가장 처음 실행되는 함수인데, \n        배포가 될 때 보낸 사람(msg.sender)으로 owner를 저장하는 의미이다.\n    */\n    constructor() public { // 생성자\n        owner = msg.sender;\n    }\n\n    // pot에 대한 getter\n    function getPot() public view returns (uint256 value) { // 스마트 컨트랙트에 있는 변수를 줘야하는 수식어는 \"view\"가 들어가야한다\n        return _pot;\n    }\n\n    // Bet - 배팅하는 함수\n    /**\n     *  @dev 배팅을 한다. 유저는 0.005 ETH를 보내야 하고, 베팅을 1 byte 글자를 보낸다.\n        큐에 저장된 배팅 정보는 이후 distribute 함수에서 해결된다.\n     *  @param challenges 유저가 배팅하는 글자\n     *  @return 함수가 잘 수행되었는지 확인하는 bool 값\n     */\n    function bet(byte challenges) public payable returns (bool result) {\n        // check the proper ether is sent\n        require(msg.value == BET_AMOUNT, \"Not enough ETH\"); // 들어 온 돈에 대해서 확인할 수 있는게 msg.value 이다.\n        \n        // push bet to the queue\n        require(pushBet(challenges), \"Fail to add a new Bet Info\");\n\n        // emit event\n        emit BET(_tail - 1, msg.sender, msg.value, challenges, block.number + BET_BLOCK_INTERVAL);\n        \n        return true;\n    }\n        // save the bet to the queue\n\n    // Distribute - 베팅을 하면 정답을 맞춘 사람에게는 돈을 돌려주고 아니면 돈을 pot에 갖는 시스템\n    function distribute() public {\n        uint256 cur;\n        uint256 transferAmount;\n\n        BetInfo memory b;\n        BlockStatus currentBlockStatus;\n        BettingResult currentBettingResult;\n\n        for(cur=_head;cur<_tail;cur++) {\n            b = _bets[cur];\n            currentBlockStatus = getBlockStatus((b.answerBlockNumber));\n            bytes32 answerBlockHash = getAnswerBlockHash(b.answerBlockNumber);\n            if(currentBlockStatus == BlockStatus.Checkable) {\n                currentBettingResult = isMatch(b.challenges, answerBlockHash);\n                // if win, bettor gets pot\n                if(currentBettingResult == BettingResult.Win) {\n                    // transfer pot\n                    transferAmount = transferAfterPayingFee(b.bettor, _pot + BET_AMOUNT);\n                    \n                    // pot = 0\n                    _pot = 0;\n                    \n                    // emit event(WIN)\n                    emit WIN(cur, b.bettor, transferAmount, b.challenges, answerBlockHash[0], b.answerBlockNumber);\n                }\n                // if fail bettor's money goes pot\n                if(currentBettingResult == BettingResult.Fail) {\n                    // pot = pot + BET_AMOUNT\n                    _pot += BET_AMOUNT;\n                    // emit FAIL\n                    emit FAIL(cur, b.bettor, 0, b.challenges, answerBlockHash[0], b.answerBlockNumber);\n                }\n                // if draw, refund bettor's money\n                if(currentBettingResult == BettingResult.Fail) {\n                    // transfer only BET_AMOUNT\n                    transferAmount = transferAfterPayingFee(b.bettor, BET_AMOUNT);\n\n                    // emit DRAW\n                    emit FAIL(cur, b.bettor, transferAmount, b.challenges, answerBlockHash[0], b.answerBlockNumber);\n                }\n            }\n\n            if(currentBlockStatus == BlockStatus.NotRevealed) {\n                break;\n            }\n\n            if(currentBlockStatus == BlockStatus.BlockLimitPassed) {\n                // refund\n                transferAmount = transferAfterPayingFee(b.bettor, BET_AMOUNT);\n                //emit refund\n                emit REFUND(cur, b.bettor, transferAmount, b.challenges, b.answerBlockNumber);\n            }\n            popBet(cur);\n        }\n        _head = cur;\n    }\n    function transferAfterPayingFee(address payable addr, uint256 amount) internal returns (uint256) {\n        uint256 fee = 0;\n        uint256 amountWithoutFee = amount - fee;\n\n        // transfer to addr\n        addr.transfer(amountWithoutFee);\n        // transfer to owner\n        owner.transfer(fee);\n\n        // call, send, transfer\n        \n        return amountWithoutFee;\n    }\n    function setAnswerForTest(bytes32 answer) public returns (bool result) {\n        require(msg.sender == owner, \"Only owner can set the answer for test mode\");\n        answerForTest = answer;\n        return true;\n    }\n    function getAnswerBlockHash(uint256 answerBlockNumber) internal view returns (bytes32 answer) {\n        return mode ? blockhash(answerBlockNumber) : answerForTest;\n    }\n    /**\n     * @dev 베팅금지와 정답을 확인한다.\n     * @param challenges 베팅 금지\n     * @param answer 블락 해쉬\n     * @return 정답결과\n     */\n    function isMatch(byte challenges, bytes32 answer) public pure returns (BettingResult) {\n        // challenges 0xab\n        // answer 0xab......ff 32 bytes\n\n        byte c1 = challenges;\n        byte c2 = challenges;\n\n        byte a1 = answer[0];\n        byte a2 = answer[0];\n\n        // Get first number\n        c1 = c1 >> 4; // 0xab -> 0x0a\n        c1 = c1 << 4; // 0x0a -> 0xa0\n\n        a1 = a1 >> 4;\n        a1 = a1 << 4;\n\n        // Get Second number\n        c2 = c2 << 4; // 0xab -> 0xb0\n        c2 = c2 >> 4; // 0xb0 -> 0x0b\n\n        a2 = a2 << 4;\n        a2 = a2 >> 4;\n\n        if(a1 == c1 && a2 == c2) {\n            return BettingResult.Win;\n        }\n\n        if(a1 == c1 || a2 == c2) {\n            return BettingResult.Draw;\n        }\n\n        return BettingResult.Fail;\n\n    }\n\n    function getBlockStatus(uint256 answerBlockNumber) internal view returns(BlockStatus) {\n        if(block.number > answerBlockNumber && block.number < BLOCK_LIMIT + answerBlockNumber) {\n            return BlockStatus.Checkable;\n        }\n\n        if(block.number > answerBlockNumber) {\n            return BlockStatus.NotRevealed;\n        }\n\n        if(block.number > answerBlockNumber + BLOCK_LIMIT) {\n            return BlockStatus.BlockLimitPassed;\n        }\n        return BlockStatus.BlockLimitPassed;\n    }\n\n    function getBetInfo(uint256 index) public view returns (uint256 answerBlockNumber, address bettor, byte challenges) {\n        BetInfo memory b = _bets[index];\n        answerBlockNumber = b.answerBlockNumber;\n        bettor = b.bettor;\n        challenges = b.challenges;\n    }\n\n    // queue에 push 하는 함수\n    function pushBet(byte challenges) internal returns (bool) {\n        BetInfo memory b;\n        b.bettor = msg.sender; // 20 byte\n        b.answerBlockNumber = block.number + BET_BLOCK_INTERVAL; // 32 byte = 20000 gas\n        b.challenges = challenges; // byte  b.bettor의 20 byte와 합쳐서 = 20000 gas\n\n        _bets[_tail] = b;\n        _tail++; // 32byte 값 변화 = 20000 gas\n        // tail값을 safeMath로 해줘도 되긴 하는데 여기서는 오버플로우 값을 검사 안해도 되기 때문에 할 필요는 없을 것 같다.\n        \n        return true;\n    }\n\n    // queue에서 pop 하는 함수\n    function popBet(uint256 index) internal returns (bool) {\n        // delete 하면 블록체인에 데이터를 더이상 저장하지 않겠다(state database에서 값들을 없애겠다)는 의미로서 일정량의 가스를 돌려받는다.\n        delete _bets[index];\n        return true;\n    }\n}",
  "sourcePath": "/Users/jeongtaeung/Desktop/Lottery_Dapp/lottery-smart-contract/contracts/Lottery.sol",
  "compiler": {
    "name": "solc",
    "version": "0.5.0+commit.1d4f565a.Emscripten.clang"
  },
  "schemaVersion": "3.0.1",
  "updatedAt": "2022-01-25T10:38:13.059Z",
  "devdoc": {
    "methods": {
      "bet(bytes1)": {
        "details": "배팅을 한다. 유저는 0.005 ETH를 보내야 하고, 베팅을 1 byte 글자를 보낸다. 큐에 저장된 배팅 정보는 이후 distribute 함수에서 해결된다.",
        "params": {
          "challenges": "유저가 배팅하는 글자"
        },
        "return": "함수가 잘 수행되었는지 확인하는 bool 값"
      },
      "isMatch(bytes1,bytes32)": {
        "details": "베팅금지와 정답을 확인한다.",
        "params": {
          "answer": "블락 해쉬",
          "challenges": "베팅 금지"
        },
        "return": "정답결과"
      }
    }
  },
  "userdoc": {
    "methods": {}
  }
}