{
  "contractName": "Lottery",
  "abi": [
    {
      "constant": true,
      "inputs": [],
      "name": "owner",
      "outputs": [
        {
          "name": "",
          "type": "address"
        }
      ],
      "payable": false,
      "stateMutability": "view",
      "type": "function"
    },
    {
      "inputs": [],
      "payable": false,
      "stateMutability": "nonpayable",
      "type": "constructor"
    },
    {
      "anonymous": false,
      "inputs": [
        {
          "indexed": false,
          "name": "index",
          "type": "uint256"
        },
        {
          "indexed": false,
          "name": "bettor",
          "type": "address"
        },
        {
          "indexed": false,
          "name": "amount",
          "type": "uint256"
        },
        {
          "indexed": false,
          "name": "challenges",
          "type": "bytes1"
        },
        {
          "indexed": false,
          "name": "answerBlockNumber",
          "type": "uint256"
        }
      ],
      "name": "BET",
      "type": "event"
    },
    {
      "constant": true,
      "inputs": [],
      "name": "getPot",
      "outputs": [
        {
          "name": "value",
          "type": "uint256"
        }
      ],
      "payable": false,
      "stateMutability": "view",
      "type": "function"
    },
    {
      "constant": false,
      "inputs": [
        {
          "name": "challenges",
          "type": "bytes1"
        }
      ],
      "name": "bet",
      "outputs": [
        {
          "name": "result",
          "type": "bool"
        }
      ],
      "payable": true,
      "stateMutability": "payable",
      "type": "function"
    },
    {
      "constant": false,
      "inputs": [],
      "name": "distribute",
      "outputs": [],
      "payable": false,
      "stateMutability": "nonpayable",
      "type": "function"
    },
    {
      "constant": true,
      "inputs": [
        {
          "name": "challenges",
          "type": "bytes1"
        },
        {
          "name": "answer",
          "type": "bytes32"
        }
      ],
      "name": "isMatch",
      "outputs": [
        {
          "name": "",
          "type": "uint8"
        }
      ],
      "payable": false,
      "stateMutability": "pure",
      "type": "function"
    },
    {
      "constant": true,
      "inputs": [
        {
          "name": "index",
          "type": "uint256"
        }
      ],
      "name": "getBetInfo",
      "outputs": [
        {
          "name": "answerBlockNumber",
          "type": "uint256"
        },
        {
          "name": "bettor",
          "type": "address"
        },
        {
          "name": "challenges",
          "type": "bytes1"
        }
      ],
      "payable": false,
      "stateMutability": "view",
      "type": "function"
    }
  ],
  "bytecode": "0x608060405234801561001057600080fd5b5033600360006101000a81548173ffffffffffffffffffffffffffffffffffffffff021916908373ffffffffffffffffffffffffffffffffffffffff160217905550610d82806100616000396000f3fe608060405260043610610078576000357c0100000000000000000000000000000000000000000000000000000000900463ffffffff168063403c9fa81461007d57806379141f80146100a85780638da5cb5b1461017557806399a167d7146101cc578063e4fc6b6d14610255578063f4b46f5b1461026c575b600080fd5b34801561008957600080fd5b506100926102d4565b6040518082815260200191505060405180910390f35b3480156100b457600080fd5b506100e1600480360360208110156100cb57600080fd5b81019080803590602001909291905050506102de565b604051808481526020018373ffffffffffffffffffffffffffffffffffffffff1673ffffffffffffffffffffffffffffffffffffffff168152602001827effffffffffffffffffffffffffffffffffffffffffffffffffffffffffffff19167effffffffffffffffffffffffffffffffffffffffffffffffffffffffffffff19168152602001935050505060405180910390f35b34801561018157600080fd5b5061018a610403565b604051808273ffffffffffffffffffffffffffffffffffffffff1673ffffffffffffffffffffffffffffffffffffffff16815260200191505060405180910390f35b3480156101d857600080fd5b50610231600480360360408110156101ef57600080fd5b8101908080357effffffffffffffffffffffffffffffffffffffffffffffffffffffffffffff1916906020019092919080359060200190929190505050610429565b6040518082600281111561024157fe5b60ff16815260200191505060405180910390f35b34801561026157600080fd5b5061026a610772565b005b6102ba6004803603602081101561028257600080fd5b8101908080357effffffffffffffffffffffffffffffffffffffffffffffffffffffffffffff1916906020019092919050505061090d565b604051808215151515815260200191505060405180910390f35b6000600454905090565b60008060006102eb610cfc565b6002600086815260200190815260200160002060606040519081016040529081600082015481526020016001820160009054906101000a900473ffffffffffffffffffffffffffffffffffffffff1673ffffffffffffffffffffffffffffffffffffffff1673ffffffffffffffffffffffffffffffffffffffff1681526020016001820160149054906101000a90047f0100000000000000000000000000000000000000000000000000000000000000027effffffffffffffffffffffffffffffffffffffffffffffffffffffffffffff19167effffffffffffffffffffffffffffffffffffffffffffffffffffffffffffff1916815250509050806000015193508060200151925080604001519150509193909250565b600360009054906101000a900473ffffffffffffffffffffffffffffffffffffffff1681565b6000808390506000849050600084600060208110151561044557fe5b1a7f0100000000000000000000000000000000000000000000000000000000000000029050600085600060208110151561047b57fe5b1a7f01000000000000000000000000000000000000000000000000000000000000000290506004847effffffffffffffffffffffffffffffffffffffffffffffffffffffffffffff1916908060020a820491505093506004847effffffffffffffffffffffffffffffffffffffffffffffffffffffffffffff19169060020a0293506004827effffffffffffffffffffffffffffffffffffffffffffffffffffffffffffff1916908060020a820491505091506004827effffffffffffffffffffffffffffffffffffffffffffffffffffffffffffff19169060020a0291506004837effffffffffffffffffffffffffffffffffffffffffffffffffffffffffffff19169060020a0292506004837effffffffffffffffffffffffffffffffffffffffffffffffffffffffffffff1916908060020a820491505092506004817effffffffffffffffffffffffffffffffffffffffffffffffffffffffffffff19169060020a0290506004817effffffffffffffffffffffffffffffffffffffffffffffffffffffffffffff1916908060020a82049150509050837effffffffffffffffffffffffffffffffffffffffffffffffffffffffffffff1916827effffffffffffffffffffffffffffffffffffffffffffffffffffffffffffff19161480156106aa5750827effffffffffffffffffffffffffffffffffffffffffffffffffffffffffffff1916817effffffffffffffffffffffffffffffffffffffffffffffffffffffffffffff1916145b156106bc57600194505050505061076c565b837effffffffffffffffffffffffffffffffffffffffffffffffffffffffffffff1916827effffffffffffffffffffffffffffffffffffffffffffffffffffffffffffff191614806107515750827effffffffffffffffffffffffffffffffffffffffffffffffffffffffffffff1916817effffffffffffffffffffffffffffffffffffffffffffffffffffffffffffff1916145b1561076357600294505050505061076c565b60009450505050505b92915050565b600061077c610cfc565b600060015492505b600054831015610908576002600084815260200190815260200160002060606040519081016040529081600082015481526020016001820160009054906101000a900473ffffffffffffffffffffffffffffffffffffffff1673ffffffffffffffffffffffffffffffffffffffff1673ffffffffffffffffffffffffffffffffffffffff1681526020016001820160149054906101000a90047f0100000000000000000000000000000000000000000000000000000000000000027effffffffffffffffffffffffffffffffffffffffffffffffffffffffffffff19167effffffffffffffffffffffffffffffffffffffffffffffffffffffffffffff19168152505091506108968260000151610ae2565b9050600060028111156108a557fe5b8160028111156108b157fe5b5050600160028111156108c057fe5b8160028111156108cc57fe5b14156108d757610908565b6002808111156108e357fe5b8160028111156108ef57fe5b50506108fa83610b34565b508280600101935050610784565b505050565b60006611c37937e080003414151561098d576040517f08c379a000000000000000000000000000000000000000000000000000000000815260040180806020018281038252600e8152602001807f4e6f7420656e6f7567682045544800000000000000000000000000000000000081525060200191505060405180910390fd5b61099682610b98565b1515610a0a576040517f08c379a000000000000000000000000000000000000000000000000000000000815260040180806020018281038252601a8152602001807f4661696c20746f206164642061206e65772042657420496e666f00000000000081525060200191505060405180910390fd5b7f100791de9f40bf2d56ffa6dc5597d2fd0b2703ea70bc7548cd74c04f5d215ab760016000540333348560034301604051808681526020018573ffffffffffffffffffffffffffffffffffffffff1673ffffffffffffffffffffffffffffffffffffffff168152602001848152602001837effffffffffffffffffffffffffffffffffffffffffffffffffffffffffffff19167effffffffffffffffffffffffffffffffffffffffffffffffffffffffffffff191681526020018281526020019550505050505060405180910390a160019050919050565b60008143118015610af65750816101000143105b15610b045760009050610b2f565b81431115610b155760019050610b2f565b6101008201431115610b2a5760029050610b2f565b600290505b919050565b6000600260008381526020019081526020016000206000808201600090556001820160006101000a81549073ffffffffffffffffffffffffffffffffffffffff02191690556001820160146101000a81549060ff0219169055505060019050919050565b6000610ba2610cfc565b33816020019073ffffffffffffffffffffffffffffffffffffffff16908173ffffffffffffffffffffffffffffffffffffffff1681525050600343018160000181815250508281604001907effffffffffffffffffffffffffffffffffffffffffffffffffffffffffffff191690817effffffffffffffffffffffffffffffffffffffffffffffffffffffffffffff1916815250508060026000805481526020019081526020016000206000820151816000015560208201518160010160006101000a81548173ffffffffffffffffffffffffffffffffffffffff021916908373ffffffffffffffffffffffffffffffffffffffff16021790555060408201518160010160146101000a81548160ff02191690837f01000000000000000000000000000000000000000000000000000000000000009004021790555090505060008081548092919060010191905055506001915050919050565b60606040519081016040528060008152602001600073ffffffffffffffffffffffffffffffffffffffff16815260200160007effffffffffffffffffffffffffffffffffffffffffffffffffffffffffffff19168152509056fea165627a7a72305820ab06cec4e46345a2e1e8addc8818273f0484715b32cf23ea2b8175069a7baf1f0029",
  "source": "pragma solidity >=0.4.21 <0.6.0;\n\ncontract Lottery {\n    struct BetInfo {\n        uint256 answerBlockNumber;  // 맞추려는 정답 블록\n        address payable bettor;  // 정답을 맞출 때 bettor에게 돈을 보내야 함. (0.42 이상 부터 돈을 보내려면 payable을 붙여야 돈을 보내기 가능하다)\n        byte challenges; // 0xab...\n    }\n\n    uint256 private _tail;\n    uint256 private _head;\n\n    // map을 이용한 선형 queue\n    mapping (uint256 => BetInfo) private _bets;\n\n    /* public으로 만들게 되면 자동으로 getter를 만들어준다. 그래서 스마트 컨트랙트 외부에서 owner값을 확인할 수 있게되는 것이다. */\n    address public owner;\n\n    uint256 constant internal BLOCK_LIMIT = 256;\n    uint256 constant internal BET_BLOCK_INTERVAL = 3; // 블록들 간의 간격\n    uint256 constant internal BET_AMOUNT = 5 * 10 ** 15; // 0.005ETH\n    uint256 private _pot;\n\n    enum BlockStatus {Checkable, NotRevealed, BlockLimitPassed}\n    enum BettingResult{Fail, Win, Draw}\n    event BET(uint256 index, address bettor, uint256 amount, byte challenges, uint256 answerBlockNumber);\n\n    /* \n        스마트 컨트랙트가 생성이 될 때(배포가 될 때) 가장 처음 실행되는 함수인데, \n        배포가 될 때 보낸 사람(msg.sender)으로 owner를 저장하는 의미이다.\n    */\n    constructor() public { // 생성자\n        owner = msg.sender;\n    }\n\n    // pot에 대한 getter\n    function getPot() public view returns (uint256 value) { // 스마트 컨트랙트에 있는 변수를 줘야하는 수식어는 \"view\"가 들어가야한다\n        return _pot;\n    }\n\n    // Bet - 배팅하는 함수\n    /**\n     *  @dev 배팅을 한다. 유저는 0.005 ETH를 보내야 하고, 베팅을 1 byte 글자를 보낸다.\n        큐에 저장된 배팅 정보는 이후 distribute 함수에서 해결된다.\n     *  @param challenges 유저가 배팅하는 글자\n     *  @return 함수가 잘 수행되었는지 확인하는 bool 값\n     */\n    function bet(byte challenges) public payable returns (bool result) {\n        // check the proper ether is sent\n        require(msg.value == BET_AMOUNT, \"Not enough ETH\"); // 들어 온 돈에 대해서 확인할 수 있는게 msg.value 이다.\n        \n        // push bet to the queue\n        require(pushBet(challenges), \"Fail to add a new Bet Info\");\n\n        // emit event\n        emit BET(_tail - 1, msg.sender, msg.value, challenges, block.number + BET_BLOCK_INTERVAL);\n        \n        return true;\n    }\n        // save the bet to the queue\n\n    // Distribute - 베팅을 하면 정답을 맞춘 사람에게는 돈을 돌려주고 아니면 돈을 pot에 갖는 시스템\n    function distribute() public {\n        uint256 cur;\n        BetInfo memory b;\n        BlockStatus currentBlockStatus;\n        for(cur=_head;cur<_tail;cur++) {\n            b = _bets[cur];\n            currentBlockStatus = getBlockStatus((b.answerBlockNumber));\n\n            if(currentBlockStatus == BlockStatus.Checkable) {\n                // if win, bettor gets pot\n\n                // if fail bettor's money goes pot\n\n                // if draw, refund bettor's money\n            }\n\n            if(currentBlockStatus == BlockStatus.NotRevealed) {\n                break;\n            }\n\n            if(currentBlockStatus == BlockStatus.BlockLimitPassed) {\n                \n            }\n            popBet(cur);\n        }\n    }    \n    /**\n     * @dev 베팅금지와 정답을 확인한다.\n     * @param challenges 베팅 금지\n     * @param answer 블락 해쉬\n     * @return 정답결과\n     */\n    function isMatch(byte challenges, bytes32 answer) public pure returns (BettingResult) {\n        // challenges 0xab\n        // answer 0xab......ff 32 bytes\n\n        byte c1 = challenges;\n        byte c2 = challenges;\n\n        byte a1 = answer[0];\n        byte a2 = answer[0];\n\n        // Get first number\n        c1 = c1 >> 4; // 0xab -> 0x0a\n        c1 = c1 << 4; // 0x0a -> 0xa0\n\n        a1 = a1 >> 4;\n        a1 = a1 << 4;\n\n        // Get Second number\n        c2 = c2 << 4; // 0xab -> 0xb0\n        c2 = c2 >> 4; // 0xb0 -> 0x0b\n\n        a2 = a2 << 4;\n        a2 = a2 >> 4;\n\n        if(a1 == c1 && a2 == c2) {\n            return BettingResult.Win;\n        }\n\n        if(a1 == c1 || a2 == c2) {\n            return BettingResult.Draw;\n        }\n\n        return BettingResult.Fail;\n\n    }\n\n    function getBlockStatus(uint256 answerBlockNumber) internal view returns(BlockStatus) {\n        if(block.number > answerBlockNumber && block.number < BLOCK_LIMIT + answerBlockNumber) {\n            return BlockStatus.Checkable;\n        }\n\n        if(block.number > answerBlockNumber) {\n            return BlockStatus.NotRevealed;\n        }\n\n        if(block.number > answerBlockNumber + BLOCK_LIMIT) {\n            return BlockStatus.BlockLimitPassed;\n        }\n        return BlockStatus.BlockLimitPassed;\n    }\n\n    function getBetInfo(uint256 index) public view returns (uint256 answerBlockNumber, address bettor, byte challenges) {\n        BetInfo memory b = _bets[index];\n        answerBlockNumber = b.answerBlockNumber;\n        bettor = b.bettor;\n        challenges = b.challenges;\n    }\n\n    // queue에 push 하는 함수\n    function pushBet(byte challenges) internal returns (bool) {\n        BetInfo memory b;\n        b.bettor = msg.sender; // 20 byte\n        b.answerBlockNumber = block.number + BET_BLOCK_INTERVAL; // 32 byte = 20000 gas\n        b.challenges = challenges; // byte  b.bettor의 20 byte와 합쳐서 = 20000 gas\n\n        _bets[_tail] = b;\n        _tail++; // 32byte 값 변화 = 20000 gas\n        // tail값을 safeMath로 해줘도 되긴 하는데 여기서는 오버플로우 값을 검사 안해도 되기 때문에 할 필요는 없을 것 같다.\n        \n        return true;\n    }\n\n    // queue에서 pop 하는 함수\n    function popBet(uint256 index) internal returns (bool) {\n        // delete 하면 블록체인에 데이터를 더이상 저장하지 않겠다(state database에서 값들을 없애겠다)는 의미로서 일정량의 가스를 돌려받는다.\n        delete _bets[index];\n        return true;\n    }\n}",
  "sourcePath": "/Users/jeongtaeung/Desktop/Lottery_Dapp/lottery-smart-contract/contracts/Lottery.sol",
  "compiler": {
    "name": "solc",
    "version": "0.5.0+commit.1d4f565a.Emscripten.clang"
  },
  "schemaVersion": "3.0.1",
  "updatedAt": "2022-01-25T09:52:27.079Z",
  "devdoc": {
    "methods": {
      "bet(bytes1)": {
        "details": "배팅을 한다. 유저는 0.005 ETH를 보내야 하고, 베팅을 1 byte 글자를 보낸다. 큐에 저장된 배팅 정보는 이후 distribute 함수에서 해결된다.",
        "params": {
          "challenges": "유저가 배팅하는 글자"
        },
        "return": "함수가 잘 수행되었는지 확인하는 bool 값"
      },
      "isMatch(bytes1,bytes32)": {
        "details": "베팅금지와 정답을 확인한다.",
        "params": {
          "answer": "블락 해쉬",
          "challenges": "베팅 금지"
        },
        "return": "정답결과"
      }
    }
  },
  "userdoc": {
    "methods": {}
  }
}